:020000040800F2
:1000000000000120050E0008490E0008490E0008F6
:10001000490E0008490E0008490E000800000000C3
:10002000000000000000000000000000490E000871
:10003000490E000800000000490E0008490E0008A3
:10004000490E0008490E0008490E0008490E000834
:10005000490E0008490E0008490E0008490E000824
:10006000490E0008490E0008490E0008490E000814
:10007000490E0008490E0008490E0008490E000804
:10008000490E0008490E0008350C00080000000069
:10009000000000000000000000000000490E000801
:1000A000490E0008490E0008490E0008490E0008D4
:1000B000490E0008210D0008490E0008490E0008ED
:1000C000490E0008490E0008490E0008490E0008B4
:1000D000490E0008490E0008350B0008000000001A
:1000E000490E0008490E0008490E000800000000F3
:1000F000000000000000000000000000490E0008A1
:1001000000000000490E0008490E0008490E0008D2
:1001100000000000000000000000000000000000DF
:10012000490E0008490E0008490E0008490E000853
:10013000490E000800000000000000000000000060
:10014000000000000000000000000000490E000850
:10015000490E0008490E0008490E0008490E000823
:10016000490E0008490E00080000000000000000D1
:10017000000000000000000000000000000000007F
:1001800000000000490E0008000000000000000010
:04019000490E00080C
:1001980010B5054C237833B9044B13B10448AFF3B9
:1001A80000800123237010BDD00100200000000052
:1001B800D02800080C4B43B10C480D4910B5AFF3DB
:1001C80000800C48036823B910BD0A48036833B996
:1001D8007047094B002BF7D0BDE810401847064B75
:1001E800002BF5D0184700BF00000000D0280008F9
:1001F800D4010020D001002000000000034613F8BD
:10020800012B002AFBD1181A0138704781F00041F0
:1002180002E000BF83F0004330B54FEA41044FEAE3
:10022800430594EA050F08BF90EA020F1FBF54EA7E
:10023800000C55EA020C7FEA645C7FEA655C00F01A
:10024800E2804FEA5454D4EB5555B8BF6D420CDDEB
:100258002C4480EA020281EA030382EA000083EA6E
:10026800010180EA020281EA0303362D88BF30BD0E
:1002780011F0004F4FEA01314FF4801C4CEA113164
:1002880002D0404261EB410113F0004F4FEA0333C3
:100298004CEA133302D0524263EB430394EA050F4E
:1002A80000F0A780A4F10104D5F1200E0DDB02FABD
:1002B8000EFC22FA05F2801841F1000103FA0EF251
:1002C800801843FA05F359410EE0A5F120050EF117
:1002D800200E012A03FA0EFC28BF4CF0020C43FA48
:1002E80005F3C01851EBE37101F0004507D54FF055
:1002F800000EDCF1000C7EEB00006EEB0101B1F5A5
:10030800801F1BD3B1F5001F0CD349085FEA3000EA
:100318004FEA3C0C04F101044FEA445212F5800FF5
:1003280080F09A80BCF1004F08BF5FEA500C50F192
:10033800000041EB045141EA050130BD5FEA4C0C75
:10034800404141EB010111F4801FA4F10104E9D1FE
:1003580091F0000F04BF01460020B1FA81F308BFF5
:100368002033A3F10B03B3F120020CDA0C3208DDC1
:1003780002F1140CC2F10C0201FA0CF021FA02F19C
:100388000CE002F11402D8BFC2F1200C01FA02F10C
:1003980020FA0CFCDCBF41EA0C019040E41AA2BF31
:1003A80001EB0451294330BD6FEA04041F3C1CDAF9
:1003B8000C340EDC04F11404C4F1200220FA04F019
:1003C80001FA02F340EA030021FA04F345EA0301C3
:1003D80030BDC4F10C04C4F1200220FA02F001FA85
:1003E80004F340EA0300294630BD21FA04F0294607
:1003F80030BD94F0000F83F4801306BF81F48011A0
:100408000134013D4EE77FEA645C18BF7FEA655C12
:1004180029D094EA050F08BF90EA020F05D054EAE4
:10042800000C04BF1946104630BD91EA030F1EBFE9
:100438000021002030BD5FEA545C05D140004941ED
:1004480028BF41F0004130BD14F580043CBF01F5E0
:10045800801130BD01F0004545F0FE4141F47001C6
:100468004FF0000030BD7FEA645C1ABF19461046A1
:100478007FEA655C1CBF0B46024650EA013406BFA2
:1004880052EA033591EA030F41F4002130BD00BF61
:1004980090F0000F04BF0021704730B54FF480641E
:1004A80004F132044FF000054FF0000150E700BF9F
:1004B80090F0000F04BF0021704730B54FF48064FE
:1004C80004F1320410F0004548BF40424FF00001EB
:1004D8003EE700BF42004FEAE2014FEA31014FEA2E
:1004E80002701FBF12F07F4393F07F4F81F060517D
:1004F800704792F0000F14BF93F07F4F704730B5EC
:100508004FF4607401F0004521F0004120E700BF7E
:1005180050EA010208BF704730B54FF000050AE005
:1005280050EA010208BF704730B511F0004502D506
:10053800404261EB41014FF4806404F132045FEA08
:10054800915C3FF4DCAE4FF003025FEADC0C18BFAD
:1005580003325FEADC0C18BF033202EBDC02C2F1A3
:10056800200300FA03FC20FA02F001FA03FE40EA35
:100578000E0021FA02F11444C1E600BF70B54FF035
:10058800FF0C4CF4E06C1CEA11541DBF1CEA135517
:1005980094EA0C0F95EA0C0F00F0DEF82C4481EA7F
:1005A800030621EA4C5123EA4C5350EA013518BF9F
:1005B80052EA033541F4801143F4801338D0A0FB8C
:1005C80002CE4FF00005E1FB02E506F00042E0FB39
:1005D80003E54FF00006E1FB03569CF0000F18BF3F
:1005E8004EF0010EA4F1FF04B6F5007F64F54074E7
:1005F80004D25FEA4E0E6D4146EB060642EAC6217A
:1006080041EA55514FEAC52040EA5E504FEACE2EE6
:10061800B4F1FD0C88BFBCF5E06F1ED8BEF1004FE9
:1006280008BF5FEA500E50F1000041EB045170BD65
:1006380006F0004646EA010140EA020081EA0301A9
:10064800B4EB5C04C2BFD4EB0C0541EA045170BDA5
:1006580041F480114FF0000E013C00F3AB8014F11F
:10066800360FDEBF002001F0004170BDC4F1000468
:10067800203C35DA0C341BDC04F11404C4F12005E9
:1006880000FA05F320FA04F001FA05F240EA020044
:1006980001F0004221F0004110EBD37021FA04F67A
:1006A80042EB06015EEA430E08BF20EAD37070BD34
:1006B800C4F10C04C4F1200500FA04F320FA05F093
:1006C80001FA04F240EA020001F0004110EBD37095
:1006D80041F100015EEA430E08BF20EAD37070BD05
:1006E800C4F1200500FA05F24EEA020E20FA04F3DE
:1006F80001FA05F243EA020321FA04F001F000418D
:1007080021FA04F220EA020000EBD3705EEA430EFD
:1007180008BF20EAD37070BD94F0000F0FD101F02C
:100728000046400041EB010111F4801F08BF013C65
:10073800F7D041EA060195F0000F18BF704703F0A3
:100748000046520043EB030313F4801F08BF013D2A
:10075800F7D043EA0603704794EA0C0F0CEA1355E6
:1007680018BF95EA0C0F0CD050EA410618BF52EAA0
:100778004306D1D181EA030101F000414FF00000A6
:1007880070BD50EA410606BF1046194652EA4306B4
:1007980019D094EA0C0F02D150EA013613D195EA28
:1007A8000C0F05D152EA03361CBF104619460AD170
:1007B80081EA030101F0004141F0FE4141F470017A
:1007C8004FF0000070BD41F0FE4141F4780170BD6A
:1007D80070B54FF0FF0C4CF4E06C1CEA11541DBFCF
:1007E8001CEA135594EA0C0F95EA0C0F00F0A7F8D1
:1007F800A4EB050481EA030E52EA03354FEA0131FE
:1008080000F088804FEA03334FF0805545EA131310
:1008180043EA12634FEA022245EA111545EA1065D8
:100828004FEA00260EF000419D4208BF964244F16F
:10083800FD0404F5407402D25B084FEA3202B61A8E
:1008480065EB03055B084FEA32024FF480104FF462
:10085800002CB6EB020E75EB030E22BFB61A7546D6
:1008680040EA0C005B084FEA3202B6EB020E75EB69
:10087800030E22BFB61A754640EA5C005B084FEAD1
:100888003202B6EB020E75EB030E22BFB61A75469E
:1008980040EA9C005B084FEA3202B6EB020E75EBA9
:1008A800030E22BFB61A754640EADC0055EA060E6A
:1008B80018D04FEA051545EA16754FEA06164FEAAD
:1008C800C30343EA52734FEAC2025FEA1C1CC0D159
:1008D80011F4801F0BD141EA00014FF000004FF0E6
:1008E800004CB6E711F4801F04BF01430020B4F1A7
:1008F800FD0C88BFBCF5E06F3FF6AFAEB5EB030C5F
:1009080004BFB6EB020C5FEA500C50F1000041EB5B
:10091800045170BD0EF0004E4EEA113114EB5C0428
:10092800C2BFD4EB0C0541EA045170BD41F48011FB
:100938004FF0000E013C90E645EA060E8DE60CEA03
:10094800135594EA0C0F08BF95EA0C0F3FF43BAF20
:1009580094EA0C0F0AD150EA01347FF434AF95EAD7
:100968000C0F7FF425AF104619462CE795EA0C0FBB
:1009780006D152EA03353FF4FDAE1046194622E788
:1009880050EA410618BF52EA43067FF4C5AE50EA62
:1009980041047FF40DAF52EA43057FF4EBAE12E752
:1009A8004FF0FF3C06E000BF4FF0010C02E000BF33
:1009B8004FF0010C4DF804CD4FEA410C7FEA6C5C16
:1009C8004FEA430C18BF7FEA6C5C1BD001B050EAB9
:1009D800410C0CBF52EA430C91EA030F02BF90EAA4
:1009E800020F0020704710F1000F91EA030F58BF63
:1009F800994208BF90422CBFD8176FEAE37040F0C5
:100A0800010070474FEA410C7FEA6C5C02D150EA62
:100A1800013C07D14FEA430C7FEA6C5CD6D152EA1D
:100A2800033CD3D05DF8040B704700BF84461046E2
:100A380062468C461946634600E000BF01B5FFF7E1
:100A4800B7FF002848BF10F1000F01BD4DF808EDB1
:100A5800FFF7F4FF0CBF012000205DF808FB00BF82
:100A68004DF808EDFFF7EAFF34BF012000205DF8DC
:100A780008FB00BF4DF808EDFFF7E0FF94BF012029
:100A880000205DF808FB00BF4DF808EDFFF7CEFF2A
:100A980094BF012000205DF808FB00BF4DF808ED69
:100AA800FFF7C4FF34BF012000205DF808FB00BF3A
:100AB8004FEA410C7FEA6C5C02D150EA013C0AD152
:100AC8004FEA430C7FEA6C5C02D152EA033C02D144
:100AD8004FF0000070474FF0010070474FEA4102A5
:100AE80012F5001215D211D56FF47873B3EB625278
:100AF80012D94FEAC12343F0004343EA505311F09F
:100B0800004F23FA02F018BF404270474FF0000030
:100B1800704750EA013005D111F0004008BF6FF06E
:100B2800004070474FF00000704700BF194A137823
:100B3800DBB219498988C9B21848C15413780133FE
:100B4800DBB213701378DBB2012B10D90022114BE2
:100B58001A700378DBB2312B0AD0104B1B78DBB24A
:100B6800332B0AD00D4B1B78DBB2342B0BD07047DC
:100B78004378DBB20A4A53637047084B5B78DBB2B1
:100B8800074AD3637047054B5B78DBB2044A1364AA
:100B9800EDE700BFEC01002000440040FC0100200C
:100BA80000040040174A136B43F001031363164B0C
:100BB800196841F020011960196A41F4E06119626D
:100BC800196841F080011960196A41F4E04119621D
:100BD800136C43F400331364A2F5FA3240F28363D2
:100BE800138193899BB243F4005343F02C03938100
:100BF800064B1B8813F0800FFAD04022044B5A6032
:100C0800704700BF00380240000002400044004026
:100C180000E100E0044B1B8813F0400FFAD080B2CB
:100C2800014B9880704700BF004400400C4B1B6884
:100C380013F0020F13D00A4B1A6822F002021A604E
:100C4800DA6C084B1A60084A12681B689A4206D088
:100C5800044B1A68044B1A600122044B1A7070473F
:100C6800002001400402002000020020ED010020C5
:100C7800114B1A6B42F001021A6310490A6842F4D8
:100C880040720A605A6C42F480725A64A3F58C333D
:100C98005A6B42F004025A635A6842F0007242F0FA
:100CA80020025A609A6842F001029A604FF480224A
:100CB800034B1A60704700BF003802400000024032
:100CC80000E100E0024A936843F080439360704774
:100CD8000020014008B5FFF7CBFF00F039F8FFF717
:100CE80061FF08BD08B5064B1B7803B908BD002293
:100CF800034B1A70034B1868C0B2FFF78BFFF5E778
:100D0800ED01002004020020704708B5FFF7E2FF5C
:100D1800FFF7E8FFFCE7000008B50B4A138A9BB20F
:100D280023F001039BB21382084A13780133DBB224
:100D380013701378DBB2642B00D008BD0022034B7C
:100D48001A70FFF7BFFFF8E7000400400802002010
:100D5800264A136B43F002031363254B196841F0CD
:100D680002011960196A41F002011962196841F01B
:100D780008011960196A41F020011962196841F4E3
:100D880000711960196A41F400311962136C43F05B
:100D980002031364174B4FF496721A85FF22DA6226
:100DA8009A8992B242F001029A8100225A63DA6368
:100DB8001A641A8B92B242F060021A839A8B92B22A
:100DC80042F4C04242F060029A831A8C92B242F412
:100DD800885242F001021A841A8892B242F0010243
:100DE8001A804FF00052044B1A60704700380240D6
:100DF800000402400004004000E100E0002103E09C
:100E08000A4B5B584350043109480A4B42189A422E
:100E1800F6D3094A02E0002342F8043B074B9A4202
:100E2800F9D3FFF771FFFFF770FF7047182B000821
:100E380000000020D0010020D00100201002002076
:100E4800FEE702440346934200D1704703F8011BB2
:100E5800F9E72DE9F04788B0002B149F1299109DEF
:100E6800DDF84CA01E4627F02007BBBF03F1004366
:100E78001E4600232D23462F14460B7004D0452F01
:100E880000D10135022300E0032307AA049206AA31
:100E980003928DE828042246334600F0A5FB472F2D
:100EA800804602D1119BDB0726D5462F08EB0509A2
:100EB80011D198F80030302B0AD1002200232046A7
:100EC8003146FFF7C3FD18B9C5F10105CAF800504E
:100ED800DAF8003099440022002320463146FFF713
:100EE800B5FD38B93022079B994505D9591C07919A
:100EF8001A70F8E7CDF81C90079B159AA3EB080326
:100F08004046136008B0BDE8F087F7B503460029EE
:100F1800B8BF494203F8022BB4BF2D222B2209295E
:100F2800427020DD0DF1070217460A2691FBF6F5FF
:100F380006FB15113031092D02F8011C02F1FF34AE
:100F4800294609DC3031023A04F8011CBA421C4631
:100F580004D3201A03B0F0BD2246E7E712F8011BBC
:100F680003F8011BF2E730221C46114404F8022B57
:100F78005970EEE72DE9F04F91B00C461A9F934651
:100F88001E46054601F002F9036809931846FFF763
:100F980035F900230E933B680A90073323F00703C3
:100FA80003F1080294F81880D4F800A03A60D3E955
:100FB8000023C4E91223D4F84C90A76C29F000430D
:100FC8000B934FF0FF32A64B0B993846FFF770FD95
:100FD800002840F0F7814FF0FF32A14B0B993846BB
:100FE800FFF748FD002840F0ED8100220023384635
:100FF8004946FFF735FD10B12D2384F84330994B4E
:10100800994FB8F1470F98BF1F46032323612AF071
:10101800040323604FF0000900965B460FAA21469F
:10102800284600F0DFF9013040F09A804FF0FF3099
:1010380011B0BDE8F08F6268531C0EA84AF48063B3
:101048000DF1340E41D106226260236000210DF1BA
:101058003302019363680590029200933A464B4627
:101068000691CDF81080CDF80CE02846FFF7F1FE88
:1010780008F0DF03472B074609D10D9BD81C02DB7C
:101088006268934259DDA8F102085FFA88F8B8F15E
:10109800650F0D9936D80139424604F150000D917B
:1010A800FFF733FF0E9A8318012A8146236102DC79
:1010B8002268D10701D5013323619DF83330002B15
:1010C800AAD02D2384F84330A6E7B8F1670F02D0E1
:1010D800B8F1470FB9D19AB1002106910DF133014A
:1010E8008DE80C00236005903A46CDF81080CDF8C5
:1010F8000CE002914B462846FFF7ABFE0746BCE7DB
:101108000122A1E7B8F1660F19D1002963680CDD47
:10111800216113B92268D20702D501330B44236138
:101128000D9BA3654FF00009C7E713B92268D007E4
:1011380001D50233F3E70123F1E74FF067080D9B70
:101148000E9A934205DB22682361D107E8D5013363
:10115800E5E7002BD4BFC3F1020301231344DEE704
:1011680023685A0507D423693A4659462846B047A2
:1011780001302AD15AE7B8F1650F40F2DC8000222D
:101188000023D4E91201FFF761FC002839D00123BC
:10119800364A59462846B04701303FF447AF0E9BC0
:1011A8000D9A9A4202DB2368D8070ED50A9B099A42
:1011B80059462846B04701303FF438AF002704F1BC
:1011C8001A080E9B013B9F4211DB23689F0708D535
:1011D800002704F11908E3680F9A9B1A9F42C0F28E
:1011E800E780E0680F9B9842B8BF184620E70123C4
:1011F800424659462846B04701303FF417AF0137F9
:10120800DFE70D9B002B33DC0123184A594628469B
:10121800B04701303FF40AAF0D9B23B90E9B13B9B9
:101228002368D907D1D50A9B099A59462846B04759
:1012380001303FF4FBAE4FF0000804F11A090D9B92
:101248005B42984501DB0E9B8EE701234A465946CF
:101258002846B04701303FF4E9AE08F10108EEE74F
:10126800FFFFEF7FE8280008EC280008F8280008AE
:101278000E9AA36D9A42A8BF1A46002A904636DCF9
:1012880004F11A034FF0000A28EAE8780B93D4F81F
:101298005890A9EB08039A4531DB0E9B0D9A9A42A8
:1012A80038DB2368DA0735D40E9B0D99A3EB0902C6
:1012B800A3EB01089045A8BF9046B8F1000F31DCB8
:1012C800002728EAE87804F11A090D9A0E9B9B1A60
:1012D800A3EB08039F42BFF678AF01234A4659465D
:1012E8002846B04701303FF4A1AE0137EDE7134679
:1012F80059463A462846B0470130C1D196E60123FF
:101308000B9A59462846B04701303FF48FAE0AF190
:10131800010ABCE70A9B099A59462846B04701309A
:10132800C2D183E6434607EB090259462846B0472F
:101338000130C5D17AE60E9A012A01DCDB0734D5E3
:1013480001233A4659462846B04701303FF46EAE6D
:101358000A9B099A59462846B04701303FF466AEC1
:1013680000220023D4E91201FFF770FB50B10027D7
:1013780004F11A080E9B013B9F420CDB4B4604F11B
:101388005002F2E60E9B7A1C013B59462846B047AC
:101398000130F3D14AE60123424659462846B04770
:1013A80001303FF443AE0137E4E701233A46ECE766
:1013B8000123424659462846B04701303FF436AE2D
:1013C800013708E73A464B4638464946FFF770FB6F
:1013D80000283FF430AE014B014F12E6F028000818
:1013E800F42800082DE9F04791461F468A680B69E2
:1013F800DDF820809342B8BF1346C9F8003091F851
:10140800432006460C4612B10133C9F80030236860
:10141800990642BFD9F800300233C9F80030256870
:1014280015F0060507D104F1190AE368D9F8002078
:101438009B1A9D4229DB94F843302268003318BF79
:10144800012392062ED404F1430239463046C047A0
:10145800013021D02368E568D9F8002003F006039D
:10146800042B08BFAD1AA36822690CBF25EAE575ED
:1014780000259342C4BF9B1AED184FF000091A3497
:101488004D451BD10020BDE8F0870123524639465F
:101498003046C047013003D14FF0FF30BDE8F08738
:1014A8000135C2E7E1185A1C302081F84300224474
:1014B80094F8451082F843100233C4E7012322460A
:1014C80039463046C0470130E6D009F10109D7E76F
:1014D8002DE9F74F03690C699C42804600F382802E
:1014E800013C01F114074FEA840E00F1140657F885
:1014F800245056F8240006EB0E03013507EB0E09BD
:101508000193B0FBF5F595B34FF0000A3846B446A1
:10151800D34650F8042B93B205FB03A34FEA134AB2
:101528009BB2ABEB0303120CBCF800B005FB02A2A4
:1015380013FA8BF34FEA124A1FFA82FBDCF80020F9
:10154800CBEB124202EB23429BB243EA02438145B2
:101558004FEA224B4CF8043BDBD256F80E3033B935
:10156800019B043B9E421A4630D3C8F810404046BF
:1015780001F037F8002825DB013530464FF0000E22
:1015880057F8042BD0F800C093B2AEEB0303120C4B
:1015980013FA8CF3C2EB1C4202EB23429BB243EAE0
:1015A8000243B9454FEA224E40F8043BE8D256F8C8
:1015B800242006EB84032AB9043B9E421A460BD327
:1015C800C8F81040284603B0BDE8F08F1268043B05
:1015D800002ACAD1013CC5E71268043B002AEFD1B2
:1015E800013CEAE70020EEE72DE9F04F466A95B0A6
:1015F8000446219DCDE902233EB9102000F0D4FD18
:101608006062466086600660C660636A196851B1A8
:101618005A684A60012393408B60204600F00BFE15
:10162800636A00221A60039B002BBFBF01232B6053
:10163800039B23F00043B2BF039300232B60DDF824
:101648000C90A94B33EA09031BD1209A42F20F737D
:101658001360029B23B9C9F31300002800F08185A9
:10166800229B53B9A14B21E0A14B06930833229A40
:101678001360069815B0BDE8F08F9C4B06930333B2
:10168800F5E7DDE902670022002330463946FFF717
:10169800DDF9804660B1209A01231360229B002B5C
:1016A80000F05C85934B229A1360013B0693E0E7B8
:1016B80012AB019313AB009332463B46204601F030
:1016C80008F8C9F30A558246002D7CD0C7F31303E6
:1016D80043F07F51304641F44011A5F2FF35CDF873
:1016E80040800022844BFEF795FD79A3D3E90023BF
:1016F800FEF744FF78A3D3E90023FEF78DFD0646E5
:1017080028460F46FEF7D4FE75A3D3E90023FEF75B
:1017180035FF02460B4630463946FEF77DFD064644
:101728000F46FFF7DBF9002283460023304639468F
:10173800FFF796F958B15846FEF7BAFE02460B462F
:1017480030463946FFF782F908B90BF1FF3BBBF188
:10175800160F57D8694901EBCB01DDE90223D1E91E
:101768000001FFF79BF900284ED00BF1FF3B002347
:101778000D93129B5D1B6B1E079343BF0023C5F19E
:10178800010807934FF00008BBF1000F3EDB079BF1
:10179800CDF830B05B440793002308931E9B092BB8
:1017A80000F2B080052BC4BF043B1E931E9BA3F11F
:1017B8000203CCBF00260126032B00F2AF80DFE82E
:1017C80003F083852D77139B129D1D4405F2324348
:1017D800202B11DD029A05F21240C3F1400322FAD0
:1017E80000F009FA03F31843FEF752FE0123A1F1B2
:1017F800F871013D109374E7C3F12000029B03FACE
:1018080000F0F1E70123B3E70D90B2E7CBF1000355
:1018180008930023A8EB0B080C93BFE70123099357
:101828001F9B002B7DDD04939946656A00226A6040
:10183800042101F114029A4278D96968204600F01F
:10184800C6FC636A28601B680693B9F10E0F00F2A4
:10185800EE80002E00F0EB80DDE90223BBF1000FE3
:10186800CDE90E2377DD254A0BF00F0302EBC30306
:10187800D3E900234FEA2B16F006CDE90A235AD5FF
:101888001F4BDDE90E01D3E90823FEF7A1FFCDE9DF
:10189800020106F00F060325194F002E4DD1DDE990
:1018A8000A23DDE90201FEF793FFCDE902016CE0AE
:1018B800012309931F9B5B4403F1010904934B46E1
:1018C800012BB8BF0123B0E70023A8E70023F0E706
:1018D80061436F63A787D23FB3C8608B288AC63F2E
:1018E800FB799F501344D33F0000F07F0329000881
:1018F800FA280008F92800080000F83F30290008F5
:1019080008290008012600231E9309964FF0FF338B
:1019180004939946002212231F9286E70123099314
:10192800F4E70123049399461A46F5E76A680132F9
:101938006A6049007DE70225AEE7F10708D5DDE9D1
:101948000A01D7E90023FEF719FECDE90A0101359E
:1019580076100837A1E700F0A580CBF10006A34B6D
:10196800A34F06F00F0203EBC203D3E90023DDE91E
:101978000E01FEF703FECDE9020136110023022510
:10198800002E40F08480002B8FD10D9B002B00F09F
:101998008B80DDE90223CDE90A23DDE90A01002273
:1019A800944BFFF75DF800287ED0B9F1000F7BD08B
:1019B800049B002B37DD00228F4BDDE90A01FEF77F
:1019C800DDFDCDE90201049E0BF1FF370135284604
:1019D800FEF76EFDDDE90223FEF7D0FD874B0022FE
:1019E800FEF71AFCCDE90A010B9BA3F150750B9584
:1019F800002E5CD10022824BDDE90201FEF70AFCD1
:101A08000A9A2B46CDE90201FFF748F8002840F072
:101A1800F7820A9A05F10043DDE90201FFF720F891
:101A2800002840F0EB82DDE90E23CDE90223139B69
:101A3800002BC0F25181BBF10E0F00F34D816B4BAF
:101A480003EBCB03D3E90023CDE904231F9B002B31
:101A580080F2DA80B9F1000F00F3D68040F0CD8231
:101A68000022674BDDE90401FEF788FDDDE902236A
:101A7800FFF70AF84E464F46002840F0A482069B1E
:101A8800069A5D1C312313700BF1010B9FE2F207DC
:101A980005D5D7E90023FEF771FD0135012376103E
:101AA80008376DE7022570E75F464E468FE7069ACE
:101AB8004E4B32441192099A711E002A48D003EB0A
:101AC800C103D3E9002300204E49FEF781FEDDE97A
:101AD8000A23FEF79FFBCDE90A01069DDDE9020115
:101AE800FEF7FCFF0646FEF7E3FC02460B46DDE97F
:101AF8000201FEF78FFB303605F8016BDDE90A239A
:101B0800CDE90201FEF7ACFF002865D1DDE902232B
:101B180000203849FEF77EFBDDE90A23FEF7A0FF27
:101B2800002840F0B980119B9D423FF47CAF002211
:101B3800314BDDE90A01FEF721FD0022CDE90A015A
:101B48002D4BDDE90201FEF719FDCDE90201C5E7DC
:101B580003EBC101D1E90001DDE90A23FEF70EFD1F
:101B6800CDE90A01069DDDE90201FEF7B7FF064649
:101B7800FEF79EFC303602460B46DDE90201FEF711
:101B880049FB05F8016B119BAB42CDE902014FF00F
:101B9800000225D11B4BDDE90A01FEF73DFB024699
:101BA8000B46DDE90201FEF779FF002874D1DDE973
:101BB8000A2300201349FEF72DFB02460B46DDE9F8
:101BC8000201FEF74DFF00283FF42DAF15F8013C48
:101BD800302B05F1FF3201D0BB464CE01546F5E746
:101BE800054BFEF7CBFCCDE90201BCE73029000824
:101BF800082900080000F03F0000244000001C40B5
:101C0800000014400000E03FDDE90267069DDDE9C1
:101C1800042330463946FEF7DBFDFEF75FFF8046BA
:101C2800FEF746FCDDE90423FEF7A8FC02460B4656
:101C38003046394608F13006FEF7ECFA05F8016B34
:101C4800069EAE1BB14502460B4638D1FEF7E4FAB4
:101C580006460F4602460B46DDE90401FEF700FF83
:101C6800C8B932463B46DDE90401FEF7EFFE10B184
:101C780018F0010F0FD15146204600F0DCFA00237E
:101C8800209A2B700BF101031360229B002B3FF469
:101C9800F0AC1D60EDE45F4615F8012C392A05F11A
:101CA800FF3306D1069A9A4207D1302313700137C1
:101CB80013461A7801321A708EE71D46ECE70022A7
:101CC800B44BFEF75BFC0022002306460F46FEF7E6
:101CD800BDFE00289BD0CEE7099A002A00F0298192
:101CE8001E9A012A00F30E81109A002A00F006813C
:101CF80003F23343089E4546079A01211A442046B9
:101D08009844079200F037FB0746002D0BDD079B30
:101D1800002B08DDAB42079AA8BF2B46A8EB0308A7
:101D2800ED1AD31A0793089BFBB1099B002B00F00F
:101D38000481002E11DD39463246204600F0B2FB00
:101D4800524601460746204600F01EFB51460A90BF
:101D5800204600F070FA0A9B9A46089B9A1B04D00A
:101D68005146204600F09EFB82460121204600F0A5
:101D780002FB0C9B002B064640F3E1801A46014605
:101D8800204600F08FFB1E9B012B064640F3DA80AD
:101D980000230893336906EB8303186900F09DFA62
:101DA800C0F12000079B184410F01F0000F0F080DD
:101DB800C0F12003042B40F3E280079BC0F11C0014
:101DC8008044054403440793B8F1000F05DD5146EC
:101DD8004246204600F0B4FB8246079B002B05DDF7
:101DE80031461A46204600F0ABFB06460D9B002BF9
:101DF80000F0D2803146504600F0F3FB002880F214
:101E0800CB80002351460A22204600F02BFA099B7A
:101E18000BF1FF3B8246002B00F0AA8100233946D4
:101E28000A22204600F01EFA049B002B074603DC1A
:101E38001E9B022B00F3B880002D05DD39462A468B
:101E4800204600F07DFB0746089B002B00F0108120
:101E58007968204600F0BBF93A69023205469200DB
:101E680007F10C010C3000F0A7F9012229462046A1
:101E780000F066FB029BDDF81880079703F001036A
:101E88000746089331465046FFF722FB0799054657
:101E980000F13009504600F0A4FB3A460290314662
:101EA800204600F0B8FBC3680246002B40F0E280F1
:101EB80001460990504600F094FB099A03461146E2
:101EC8002046099300F0B7F9099B002B40F0D48015
:101ED8001E9A002A40F0D080089A002A40F0CC8050
:101EE800B9F1390F00F0E880029B002B01DD05F104
:101EF800310908F1010588F800906AE0129BC3F1E6
:101F08003603F7E6089B09F1FF36B342BFBF089BCB
:101F18000896F21A0C9BB7BF9B189E1B0C930026C1
:101F2800B9F1000FB9BFA8EB0905002345464B4698
:101F3800E2E6089E099F4546E7E6089A10E71E9BD9
:101F4800012B18DC029BB3B9039BC3F31303A3B99A
:101F5800039B23F000431B0D1B052BB1079B01338B
:101F6800079308F10108012308930C9B002B7FF4C9
:101F780011AF012016E70023F6E7029BF4E73FF4D0
:101F880023AF079A1C331A4498441D4413461AE792
:101F98000346F6E700002440B9F1000F33DC1E9B2E
:101FA800022B30DDCDF81090049B63B93146052231
:101FB800204600F057F901460646504600F011FB4E
:101FC80000283FF75CAD1F9B069D6FEA030B0023BB
:101FD80007933146204600F02EF9002F3FF44BAE10
:101FE800079B2BB1BB4203D01946204600F023F9CA
:101FF8003946204600F01FF93DE600263746E2E75D
:10200800BB4637463BE5099BCDF81090002B7FF483
:1020180013AF069D31465046FFF75AFA00F13009D2
:1020280005F8019B069B049AEB1A9A4200F38380F9
:10203800069B012AACBF9B180133984600230793DF
:1020480051460122204600F07BFA3146824600F0D4
:10205800C8FA002835DC02D119F0010F31D1454604
:1020680015F8013C302B05F1FF32B2D11546F7E7E0
:102078003846FFE6012322E7029A002A04DB29D129
:102088001E9A3ABB089A2ABB002B7FF732AF5146FB
:102098000122204600F054FA3146824600F0A1FAA7
:1020A800002805DC7FF425AF19F0010F3FF421AFBC
:1020B800B9F1390F7FF41BAF392388F8003008F1E4
:1020C8000108454615F8013C392B05F1FF323AD095
:1020D80001333FE0002B08F1010505DDB9F1390FA7
:1020E800EAD009F1010906E7069B049A05F8019C64
:1020F800EB1A9342A846A3D0514600230A22204651
:1021080000F0B0F8079B0799BB4282464FF00003E6
:102118004FF00A02204604D100F0A4F807900746C1
:10212800B0E600F09FF8002307900A2239462046BF
:1021380000F098F8F3E7514600230A22204600F001
:1021480091F8824666E7069B934205D1069A0BF101
:10215800010B312313703CE71546B3E7094BFFF732
:10216800A5BA229B002B7FF47FAA074BFFF79EBAE4
:10217800049B002B3FF74DAF1E9B022B7FF749AF07
:1021880012E700BFF8280008FA280008044B1B686B
:10219800186A044B002808BF1846F030704700BF83
:1021A8000000002064000020024B0146186800F07F
:1021B800EDBA00BF0000002010B5431E0A4491424A
:1021C80000D110BD11F8014B03F8014FF7E770B5C6
:1021D800456A04460E463DB91020FFF7E5FF6062E8
:1021E800456085600560C560656AEB6883B1636AB0
:1021F800DB6853F82600B8B9012101FA06F56A1D13
:102208009200204600F0B4FA60B1466085600EE0A6
:1022180021220421204600F0ABFA636AE860DB68FB
:10222800002BE4D1002070BD026843F8262000236B
:102238000361C36070BD70B5446A06460D463CB97B
:102248001020FFF7B1FF7062446084600460C460CE
:102258003DB1736A6A68DB6853F82210296043F855
:10226800225070BD2DE9F0410D691F4606460C4607
:1022780001F1140E0023DEF8000081B202FB0171A7
:102288000F0C000C02FB007089B2013301EB004116
:102298009D424FEA10474EF8041BECDCD7B1A36807
:1022A8009D4212DB616830460131FFF790FF2269D9
:1022B800023204F10C01804692000C30FFF77CFFDB
:1022C80021463046FFF7B7FF444604EB8503013546
:1022D8005F6125612046BDE8F081020C12040346C7
:1022E800B2B90304102013F07F4F04BF1B0208305B
:1022F80013F0704F04BF1B01043013F0404F04BFAC
:102308009B000230002B06DB5B0003D501307047D1
:102318000020E8E720207047036813F00702014611
:102328000BD0DA0723D4980749BF5B089B08012024
:102338000B605CBF0B600220704798B2A8B91B0CF9
:10234800102013F0FF0F04BF1B0A08301A0704BF40
:102358001B0904309A0704BF9B080230DA0702D42D
:102368005B0806D001300B6070471046E9E7002093
:1023780070472020704710B50C460121FFF727FF52
:1023880001224461026110BD2DE9F74F14460A6924
:1023980023699A42B8BF0B468946BCBFA1461C4672
:1023A800D9F81070D4F810A0D9F80830D9F804106A
:1023B80007EB0A069E42C8BF0131FFF708FF00F18C
:1023C800140505EB86082B460022434516D304F175
:1023D800140209F1140102EB8A0301EB8707019348
:1023E800019C944213460CD8002E03DD58F8043D96
:1023F800002B54D0066103B0BDE8F08F43F8042BDE
:10240800E3E7B3F800A00432BAF1000F20D0AE46DB
:1024180089464FF0000C59F8044BBEF800B0A3B23F
:102428000AFB03B34FEA144BDEF8004063444FEA5B
:10243800144C0AFB0BC404EB13449BB243EA044359
:102448004F454FEA144C4EF8043BE4D8CEF800C090
:1024580032F8029CB9F1000F1FD02B68AE468C46AB
:102468004FF0000ABCF80040BEF802B009FB04B403
:10247800A2449BB243EA0A434EF8043B5CF8043B8F
:10248800BEF800401B0C09FB034303EB1A436745E6
:102498004FEA134AE6D8CEF800300435A0E7013EEB
:1024A800A2E700002DE9F843154612F0030206469C
:1024B8000F4607D0013A214C002354F82220FFF799
:1024C800D1FE0746AD1035D0746A3CB91020FFF72D
:1024D8006BFE7062446084600460C460D6F8248037
:1024E800D8F808404CB940F271213046FFF743FF55
:1024F8000023C8F80800044603604FF00008EB0703
:102508000AD5394622463046FFF73EFF394681460E
:102518003046FFF790FE4F466D100BD0206838B953
:10252800224621463046FFF72FFF2060C0F8008082
:102538000446E4E73846BDE8F88300BFF8290008F8
:102548002DE9F0470C464FEA621A236949680AEBFD
:102558000309A3680746164609F10105AB4231DBBA
:102568003846FFF734FE0022804600F11403114676
:1025780052452ADB20692AEAEA7A04F1140116F0A6
:102588001F0203EB8A0301EB800E22D0C2F1200C5C
:1025980000200E689640304343F8040B51F8040BB2
:1025A8008E4520FA0CF0F4D8186008B109F102053C
:1025B800013D3846C8F810502146FFF73CFE40461A
:1025C800BDE8F08701315B00C8E743F8221001320B
:1025D800CEE7043B51F8042B43F8042F8E45F9D875
:1025E800E6E703690A699B1A30B50CD192001430EA
:1025F80014318418114454F8045D51F8042D95429F
:1026080003D005D30123184630BDA042F3D3FAE71F
:102618004FF0FF33F7E72DE9F0470D46074611461F
:1026280028461446FFF7DDFF061E08D13146384616
:10263800FFF7CDFD012303614661BDE8F087A4BF24
:1026480023462C4638466168A6BF1D46002601264B
:10265800FFF7BDFD2B69C660266905F1140904F171
:10266800140202EB860709EB830800F114054FF00A
:10267800000C52F804AB59F8044B1CFA8AF1A3B2C7
:10268800C91A230CC3EB1A4303EB214389B24FEA5F
:10269800234CC84541EA0343964645F8043BE8D82D
:1026A800BE4505D355F8043D8BB10661BDE8F087FA
:1026B8005EF8041B1CFA81F31A1402EB11429BB258
:1026C80043EA02434FEA224C45F8043BE8E7013E5F
:1026D800E8E72DE9F34101211C469046089E099D33
:1026E800FFF775FDC4F31302C4F30A54074634BB5D
:1026F8000192B8F1000F27D002A840F8088DFFF723
:102708000BFE0099F0B1019AC0F1200302FA03F31D
:102718000B43C2407B610192019BBB61002B14BF3C
:10272800022101213961C4B1A4F233440444346064
:10273800C0F135002860384602B0BDE8F08142F4A7
:102748008012D5E77961E7E701A8FFF7E5FD019B6E
:102758007B61012139612030E5E707EB8103A0F2B5
:10276800324030601869FFF7B8FDC0EB4110E1E76F
:1027780038B502FB01F4214600F008F8054618B107
:1027880022460021FEF75DFB284638BD70B5CD1CFA
:1027980025F0030508350C2D38BF0C25002D0646FD
:1027A80001DBA94203D90C233360002070BD00F07F
:1027B8006DF8234A1468214691B9224C23681BB945
:1027C800304600F041F820602946304600F03CF8D9
:1027D800431C26D10C233360304600F058F8E4E758
:1027E8000B685B1B1AD40B2B0FD90B60CD50CC1880
:1027F800304600F04CF804F10B00231D20F00700D0
:10280800C31A1BD05A42E25070BD8C420DBF636898
:102818004B686360136018BF0C46E9E70C464968CB
:10282800CAE7C41C24F00304A04205D0211A30468C
:1028380000F00AF80130CDD02560D9E770BD00BF9F
:10284800F0010020F401002038B5064C00230546AD
:102858000846236000F02AF8431C02D1236803B11C
:102868002B6038BD0C02002082B001B901A942B129
:102878004BB113780B601278101C18BF012002B0FE
:1028880070471046FBE76FF00100F8E770477047A4
:1028980049B1FF2A85BF8A2303600A704FF0FF30D1
:1028A80098BF01207047084670470000044A054950
:1028B8001368002B08BF0B46184410601846704771
:1028C800F801002010020020F8B500BFF8BC08BCD1
:1028D8009E467047F8B500BFF8BC08BC9E467047D6
:1028E800494E4600696E66004E414E006E616E00AC
:1028F8003000496E66696E697479004E614E000059
:102908000080E03779C34143176E05B5B5B89346E3
:10291800F5F93FE9034F384D321D30F94877825AAF
:102928003CBF737FDD4F1575000000000000F03FCD
:102938000000000000002440000000000000594092
:102948000000000000408F40000000000088C340E5
:1029580000000000006AF8400000000080842E415A
:1029680000000000D01263410000000084D79741A6
:102978000000000065CDCD41000000205FA00242AC
:10298800000000E876483742000000A2941A6D4221
:10299800000040E59C30A2420000901EC4BCD64214
:1029A80000003426F56B0C430080E03779C34143BF
:1029B80000A0D8855734764300C84E676DC1AB4335
:1029C800003D9160E458E143408CB5781DAF154453
:1029D80050EFE2D6E41A4B4492D54D06CFF080442E
:1029E800F64AE1C7022DB544B49DD9794378EA4443
:1029F80005000000190000007D0000004300504F52
:102A0800534958002E00002020202020202020207C
:102A18002828282828202020202020202020202086
:102A280020202020202020881010101010101010B6
:102A380010101010101010040404040404040404FA
:102A48000410101010101010414141414141010182
:102A5800010101010101010101010101010101015E
:102A6800010110101010101042424242424202026C
:102A7800020202020202020202020202020202022E
:102A880002021010101020000000000000000000DA
:102A9800000000000000000000000000000000002E
:102AA800000000000000000000000000000000001E
:102AB800000000000000000000000000000000000E
:102AC80000000000000000000000000000000000FE
:102AD80000000000000000000000000000000000EE
:102AE80000000000000000000000000000000000DE
:102AF80000000000000000000000000000000000CE
:082B08000000000000000000C5
:042B1000BD010008FB
:042B1400990100081B
:102B18000400002000000000000000000000000089
:102B2800000000000000000000000000000000009D
:102B3800000000000000000000000000000000008D
:102B4800000000000000000000000000000000007D
:102B5800000000000000000000000000000000006D
:102B6800000000000000000000000000000000005D
:102B7800000000004300000000000000000000000A
:102B8800000000000000000000000000000000003D
:102B980000000000430000000000000000000000EA
:102BA800000000000000000000000000000000001D
:102BB80000000000430000000000000000000000CA
:102BC80000000000000000000000000000000000FD
:102BD80000000000430000000000000000000000AA
:102BE80000000000000000000000000000000000DD
:102BF800000000004300000000000000000000008A
:102C080000000000000000000000000000000000BC
:102C18000000000043000000000000000000000069
:102C2800000000000000000000000000000000009C
:102C38000000000043000000000000000000000049
:102C4800000000000000000000000000000000007C
:102C58000000000099280008712800080000000002
:102C68000E2A00080C2A00080D2A00080D2A000860
:102C78000D2A00080D2A00080D2A00080D2A000850
:102C88000D2A00080D2A00080D2A0008FFFFFFFF83
:102C9800FFFFFFFFFFFFFFFFFFFF000001004153A1
:102CA8004349490000000000000000000000000047
:102CB8000000000000000000000000000000415378
:102CC8004349490000000000000000000000000027
:102CD80000000000000000000000000000000000EC
:0400000508000E05DC
:00000001FF
